{
  "contractName": "Shipping",
  "abi": [
    {
      "inputs": [],
      "stateMutability": "nonpayable",
      "type": "constructor"
    },
    {
      "anonymous": false,
      "inputs": [
        {
          "indexed": false,
          "internalType": "string",
          "name": "description",
          "type": "string"
        }
      ],
      "name": "LogNewAlert",
      "type": "event"
    },
    {
      "inputs": [],
      "name": "Shipped",
      "outputs": [],
      "stateMutability": "nonpayable",
      "type": "function"
    },
    {
      "inputs": [],
      "name": "Delivered",
      "outputs": [],
      "stateMutability": "nonpayable",
      "type": "function"
    },
    {
      "inputs": [],
      "name": "Status",
      "outputs": [
        {
          "internalType": "string",
          "name": "",
          "type": "string"
        }
      ],
      "stateMutability": "view",
      "type": "function"
    }
  ],
  "bytecode": "0x608060405234801561001057600080fd5b5060008060006101000a81548160ff0219169083600281111561003657610035610040565b5b021790555061006f565b7f4e487b7100000000000000000000000000000000000000000000000000000000600052602160045260246000fd5b6104988061007e6000396000f3fe608060405234801561001057600080fd5b50600436106100415760003560e01c806345f09ce914610046578063779822f7146100645780637e59301e1461006e575b600080fd5b61004e610078565b60405161005b9190610339565b60405180910390f35b61006c61009c565b005b6100766100fd565b005b606060008060009054906101000a900460ff1690506100968161015e565b91505090565b60026000806101000a81548160ff021916908360028111156100c1576100c061035b565b5b02179055507fca75c80642b93c980135b8355995abae3ab06033dc81f956b3824323b4903ef56040516100f3906103d6565b60405180910390a1565b60016000806101000a81548160ff021916908360028111156101225761012161035b565b5b02179055507fca75c80642b93c980135b8355995abae3ab06033dc81f956b3824323b4903ef560405161015490610442565b60405180910390a1565b60608160028111156101735761017261035b565b5b600060028111156101875761018661035b565b5b036101c9576040518060400160405280600781526020017f50656e64696e6700000000000000000000000000000000000000000000000000815250905061029b565b8160028111156101dc576101db61035b565b5b600160028111156101f0576101ef61035b565b5b03610232576040518060400160405280600781526020017f5368697070656400000000000000000000000000000000000000000000000000815250905061029b565b8160028111156102455761024461035b565b5b6002808111156102585761025761035b565b5b0361029a576040518060400160405280600981526020017f44656c6976657265640000000000000000000000000000000000000000000000815250905061029b565b5b919050565b600081519050919050565b600082825260208201905092915050565b60005b838110156102da5780820151818401526020810190506102bf565b838111156102e9576000848401525b50505050565b6000601f19601f8301169050919050565b600061030b826102a0565b61031581856102ab565b93506103258185602086016102bc565b61032e816102ef565b840191505092915050565b600060208201905081810360008301526103538184610300565b905092915050565b7f4e487b7100000000000000000000000000000000000000000000000000000000600052602160045260246000fd5b7f596f7572207061636b6167652068617320617272697665640000000000000000600082015250565b60006103c06018836102ab565b91506103cb8261038a565b602082019050919050565b600060208201905081810360008301526103ef816103b3565b9050919050565b7f596f7572207061636b61676520686173206265656e2073686970706564000000600082015250565b600061042c601d836102ab565b9150610437826103f6565b602082019050919050565b6000602082019050818103600083015261045b8161041f565b905091905056fea2646970667358221220cec7f26bbc52cba6f42e13bcf98899bd98453e1b9e4c1a76b4a980506941ceb464736f6c634300080d0033",
  "immutableReferences": {},
  "source": "pragma solidity >=0.4.25 <0.9.0;\r\n\r\ncontract Shipping {\r\n    // Our predefined values for shipping listed as enums\r\n    enum ShippingStatus { Pending, Shipped, Delivered }\r\n\r\n    // Save enum ShippingStatus in variable status\r\n    ShippingStatus private status;\r\n\r\n    // Event to launch when package has arrived\r\n    event LogNewAlert(string description);\r\n\r\n    // This initializes our contract state (sets enum to Pending once the program starts)\r\n    constructor() public {\r\n        status = ShippingStatus.Pending;\r\n    }\r\n    // Function to change to Shipped\r\n    function Shipped() public {\r\n        status = ShippingStatus.Shipped;\r\n        emit LogNewAlert(\"Your package has been shipped\");\r\n    }\r\n\r\n    // Function to change to Delivered\r\n    function Delivered() public {\r\n        status = ShippingStatus.Delivered;\r\n        emit LogNewAlert(\"Your package has arrived\");\r\n    }\r\n\r\n    // Function to get the status of the shipping\r\n    function getStatus(ShippingStatus _status) internal pure returns (string memory) {\r\n     // Check the current status and return the correct name\r\n     if (ShippingStatus.Pending == _status) return \"Pending\";\r\n     if (ShippingStatus.Shipped == _status) return \"Shipped\";\r\n     if (ShippingStatus.Delivered == _status) return \"Delivered\";\r\n    }\r\n\r\n   // Get status of your shipped item\r\n    function Status() public view returns (string memory) {\r\n         ShippingStatus _status = status;\r\n         return getStatus(_status);\r\n    }\r\n}",
  "sourcePath": "C:\\Users\\admin\\source\\repos\\newSolidityProject\\contracts\\Shipping.sol",
  "compiler": {
    "name": "solc",
    "version": "0.8.13+commit.abaa5c0e.Emscripten.clang"
  },
  "schemaVersion": "3.4.7",
  "updatedAt": "2022-06-21T10:27:51.917Z",
  "devdoc": {
    "kind": "dev",
    "methods": {},
    "version": 1
  },
  "userdoc": {
    "kind": "user",
    "methods": {},
    "version": 1
  }
}